:100000000C9434000C9451000C9451000C94510049
:100010000C9451000C9451000C9451000C9451001C
:100020000C9451000C9451000C9451000C9451000C
:100030000C9451000C9451000C947A020C945100D1
:100040000C9451000C9451000C9451000C945100EC
:100050000C9451000C9451000C9451000C945100DC
:100060000C9451000C94510011241FBECFEFD8E026
:10007000DEBFCDBF11E0A0E0B1E0E0E9F6E002C0F4
:1000800005900D92A631B107D9F721E0A6E1B1E0C4
:1000900001C01D92AA31B207E1F70E94E5000C945D
:1000A00046030C940000AF92BF92CF92DF92EF9282
:1000B000FF920F931F93CF93DF93CDB7DEB768976F
:1000C0000FB6F894DEBF0FBECDBF8C0160E080E0BC
:1000D0000E947E017E018DE0E80EF11C4AE0B7012E
:1000E000C8010E9404030E94A301C8016CE370E0F0
:1000F0000E94DA02262F5C014AE0B701822F90E0CD
:100100000E940403F70101900020E9F731976F0185
:10011000CE18DF084AE08E010F5F1F4FB801C501FE
:100120000E940403F80101900020E9F7E250E01377
:1001300005C0B80180E091E00E94EE0261E08DE030
:100140008C190E947E01C7010E94A30161E08DE02D
:100150000E947E0182E091E00E94A30161E08EE0B6
:100160000E947E01C8010E94A30168960FB6F89410
:10017000DEBF0FBECDBFDF91CF911F910F91FF90DA
:10018000EF90DF90CF90BF90AF900895CF93DF9323
:100190001F92CDB7DEB74AE0BE016F5F7F4F0E946E
:1001A000F90284E091E00E94CE02CE0101960E9405
:1001B000CE0284E091E00E94CE0286E091E00E94AF
:1001C000CE020F90DF91CF91089581E084B98CE049
:1001D0000E94BD010E94B4020E94890160E080E09B
:1001E0000E947E0188E091E00E94A30161E080E02E
:1001F0000E947E010E94F7010E946C020E946E0222
:1002000078940E94B402C1E4D6E061E080E00E94EC
:100210007E010E946602823059F0833059F08130AD
:1002200009F421960E946902CE010E945300EDCF8D
:100230002197F8CFBE0180E090E00E942E03F2CF1C
:100240002F9A82E08A95F1F700C02F980895CF93F6
:10025000DF93D82F6623C1F0449A2E9887B18F6020
:1002600087B9C8B1C07F8D2F82958F708C2B88B9CC
:100270000E942001DF70DC2BD8B90E942001CF60E2
:10028000C8B9DF91CF9108954498E7CF44982E9A4A
:1002900087B1807F87B92F9A82E08A95F1F700C0F5
:1002A00086B12F9892E09A95F1F700C02F9A92E0CC
:1002B0009A95F1F700C096B19F708295807F2F9834
:1002C000892B08950E94460187FDFCCF8AE08A951C
:1002D000F1F700C00C944601CF93C82F0E94620131
:1002E00060E08C2FCF910C942701CF93C82F0E94F0
:1002F000620161E08C2FCF910C942701611103C042
:1003000080580C946C018054FCCF0E94620190E0F4
:10031000089581E00C946C0182E00C946C01CF9301
:10032000C82F0E946201CA3049F4803428F080E06E
:100330008058CF910C946C0180E4FACF61E08C2F4F
:10034000CF910C942701CF93DF93EC018991811118
:1003500003C0DF91CF9108950E948F01F7CFCF9313
:10036000DF93EC01FE0184912196811103C0DF919E
:10037000CF9108950E948F01F5CFCF93C82F87B1F9
:100380008F6087B93C9A269A279A8FEF9CE701974E
:10039000F1F700C00000419A409A0E9420018FE0CE
:1003A00097E20197F1F700C000000E9420019AEA4D
:1003B0009A95F1F700C00E9420018AEA8A95F1F728
:1003C00000C040980E9420019AEA9A95F1F700C077
:1003D00088E20E946C0188E00E946C010E94890101
:1003E00086E00E946C018C2FCF910C946C018AB135
:1003F0008F718AB98BB1806E8BB90895CF93DF93DB
:1004000000D0CDB7DEB789B191E086FB882780F9AF
:10041000891731F080911601811102C09093160165
:1004200089B129B14091160150E061E026FB2227F5
:1004300020F926278095881F8827881F282330E0E9
:1004400024233523232B41F182E0809317018093ED
:10045000160189B199B186FB882780F9991F9927E0
:10046000991F892331F080911601823011F4109286
:1004700016014D990CC01A82198289819A818F3F89
:100480009F40F0F04D9903C083E0809317010F90D7
:100490000F90DF91CF91089599B129B196FB8827EC
:1004A00080F98627922F991F9927991F892390E019
:1004B00084239523892B69F26093170182E0C7CFCB
:1004C00089819A8101969A838983D7CF8091170178
:1004D000089510921701089516BC089582E084BD16
:1004E00083E085BD8DE787BDEEE6F0E08081826028
:1004F000808308951F920F920FB60F9211242F93AD
:100500003F934F935F936F937F938F939F93AF939B
:10051000BF93EF93FF930E94FE0180911801909189
:1005200019010196893E23E09207ACF490931901DA
:1005300080931801FF91EF91BF91AF919F918F919F
:100540007F916F915F914F913F912F910F900FBECF
:100550000F901F901895109219011092180185B1F3
:1005600091E0892785B9E6CF1092C50083E3809397
:10057000C40088E18093C10086E08093C2000895A2
:100580008091C00087FFFCCF8091C60008959091B4
:10059000C00095FFFCCF8093C6000895CF93DF93F2
:1005A000EC018991811103C0DF91CF9108950E94E0
:1005B000C702F7CFAA1BBB1B51E107C0AA1FBB1F75
:1005C000A617B70710F0A61BB70B881F991F5A95DF
:1005D000A9F780959095BC01CD010895FB01DC0140
:1005E0000D900020E9F7119701900D920020E1F79E
:1005F0000895BB274A3031F4992322F4BDE2909547
:1006000081959F4F0C940503BB27FB015527AA2713
:10061000880F991FAA1FA41710F0A41B839550518F
:10062000B9F7A05DAA3308F0A95DA193009779F707
:10063000B111B1931192CB010C941E03DC01FC01AA
:10064000672F71917723E1F7329704C07C916D9306
:1006500070836291AE17BF07C8F308950196272FE4
:100660000E9435030C943403262FF999FECF92BDD6
:1006700081BDF89A019700B4021639F01FBA20BD67
:100680000FB6F894FA9AF99A0FBE0895F894FFCF2E
:1006900030003A0022000A005475726E3D73657492
:0606A0002074696D650085
:00000001FF
