:100000000C9434000C9451000C9451000C94510049
:100010000C9451000C9451000C9451000C9451001C
:100020000C9451000C9451000C9451000C9451000C
:100030000C9451000C9451000C94A4020C945100A7
:100040000C9451000C9451000C9451000C945100EC
:100050000C9451000C9451000C9451000C945100DC
:100060000C9451000C94510011241FBECFEFD8E026
:10007000DEBFCDBF11E0A0E0B1E0E4EEF6E002C0EB
:1000800005900D92A631B107D9F721E0A6E1B1E0C4
:1000900001C01D92AA31B207E1F70E940C010C9435
:1000A00070030C940000AF92BF92CF92DF92EF9258
:1000B000FF920F931F93CF93DF93CDB7DEB768976F
:1000C0000FB6F894DEBF0FBECDBF8C0160E080E0BC
:1000D0000E94A8017E018DE0E80EF11C4AE0B70104
:1000E000C8010E942E030E94CD01C8016CE370E09C
:1000F0000E940403262F5C014AE0B701822F90E0A2
:100100000E942E03F70101900020E9F731976F015B
:10011000CE18DF084AE08E010F5F1F4FB801C501FE
:100120000E942E03F80101900020E9F7E250E0134D
:1001300005C0B80180E091E00E94180361E08DE005
:100140008C190E94A801C7010E94CD0161E08DE0D9
:100150000E94A80182E091E00E94CD0161E08EE062
:100160000E94A801C8010E94CD0168960FB6F894BC
:10017000DEBF0FBECDBFDF91CF911F910F91FF90DA
:10018000EF90DF90CF90BF90AF9008950F931F93A3
:10019000CF93DF93CDB7DEB7C85CD1090FB6F89423
:1001A000DEBF0FBECDBF6CE370E00E9404039B0175
:1001B0008C014AE0BE016B597F4FC9010E942303A5
:1001C0004AE0BE016F5F7F4FC8010E94230384E0B5
:1001D00091E00E94F802CE018B599F4F0E94F802D5
:1001E00082E091E00E94F802CE0101960E94F8029E
:1001F00084E091E00E94F80286E091E00E94F8021B
:10020000C853DF4F0FB6F894DEBF0FBECDBFDF91EE
:10021000CF911F910F91089581E084B98CE00E94E5
:10022000E7010E94DE020E94B30160E080E00E94CC
:10023000A80188E091E00E94CD0161E080E00E9489
:10024000A8010E9421020E9496020E9498027894BE
:100250000E94DE02C1E4D6E061E080E00E94A801D5
:100260000E949002823071F0833071F0813009F485
:1002700021960E949302CE010E94C600CE010E94E8
:100280005300EACF2197F5CFBE0180E090E00E94B5
:100290005803EFCF2F9A82E08A95F1F700C02F988C
:1002A0000895CF93DF93D82F6623C1F0449A2E98F8
:1002B00087B18F6087B9C8B1C07F8D2F82958F704D
:1002C0008C2B88B90E944A01DF70DC2BD8B90E94C0
:1002D0004A01CF60C8B9DF91CF9108954498E7CF24
:1002E00044982E9A87B1807F87B92F9A82E08A95A9
:1002F000F1F700C086B12F9892E09A95F1F700C00F
:100300002F9A92E09A95F1F700C096B19F7082956E
:10031000807F2F98892B08950E94700187FDFCCF64
:100320008AE08A95F1F700C00C947001CF93C82F32
:100330000E948C0160E08C2FCF910C945101CF93DF
:10034000C82F0E948C0161E08C2FCF910C94510139
:10035000611103C080580C9496018054FCCF0E9418
:100360008C0190E0089581E00C94960182E00C9459
:100370009601CF93C82F0E948C01CA3049F4803473
:1003800028F080E08058CF910C94960180E4FACF59
:1003900061E08C2FCF910C945101CF93DF93EC014E
:1003A0008991811103C0DF91CF9108950E94B90115
:1003B000F7CFCF93DF93EC01FE0184912196811159
:1003C00003C0DF91CF9108950E94B901F5CFCF937B
:1003D000C82F87B18F6087B93C9A269A279A8FEFEA
:1003E0009CE70197F1F700C00000419A409A0E94F3
:1003F0004A018FE097E20197F1F700C000000E94E8
:100400004A019AEA9A95F1F700C00E944A018AEAE5
:100410008A95F1F700C040980E944A019AEA9A959D
:10042000F1F700C088E20E94960188E00E949601E0
:100430000E94B30186E00E9496018C2FCF910C940C
:1004400096018AB18F718AB98BB1806E8BB908958C
:10045000CF93DF9300D0CDB7DEB789B191E086FBB3
:10046000882780F9891731F080911601811102C027
:100470009093160189B129B14091160150E061E0D5
:1004800026FB222720F926278095881F8827881F8A
:10049000282330E024233523232B41F182E080936D
:1004A00017018093160189B199B186FB882780F9DD
:1004B000991F9927991F892331F080911601823065
:1004C00011F4109216014D990CC01A82198289817B
:1004D0009A818F3F9F40F0F04D9903C083E0809355
:1004E00017010F900F90DF91CF91089599B129B125
:1004F00096FB882780F98627922F991F9927991FA5
:10050000892390E084239523892B69F26093170156
:1005100082E0C7CF89819A8101969A838983D7CF58
:1005200080911701089510921701089516BC08953F
:1005300082E084BD83E085BD8DE787BDEEE6F0E017
:1005400080818260808308951F920F920FB60F9270
:1005500011242F933F934F935F936F937F938F93C8
:100560009F93AF93BF93EF93FF930E9428028091D4
:100570001801909119010196893E23E09207ACF48D
:100580009093190180931801FF91EF91BF91AF9162
:100590009F918F917F916F915F914F913F912F919B
:1005A0000F900FBE0F901F90189510921901109286
:1005B000180185B191E0892785B9E6CF1092C50071
:1005C00083E38093C40088E18093C10086E0809338
:1005D000C20008958091C00087FFFCCF8091C600C3
:1005E00008959091C00095FFFCCF8093C6000895B8
:1005F000CF93DF93EC018991811103C0DF91CF91FB
:1006000008950E94F102F7CFAA1BBB1B51E107C05E
:10061000AA1FBB1FA617B70710F0A61BB70B881F92
:10062000991F5A95A9F780959095BC01CD01089521
:10063000FB01DC010D900020E9F7119701900D926C
:100640000020E1F70895BB274A3031F4992322F4C2
:10065000BDE2909581959F4F0C942F03BB27FB0122
:100660005527AA27880F991FAA1FA41710F0A41BAB
:1006700083955051B9F7A05DAA3308F0A95DA19305
:10068000009779F7B111B1931192CB010C94480303
:10069000DC01FC01672F71917723E1F7329704C0E9
:1006A0007C916D9370836291AE17BF07C8F3089574
:1006B0000196272F0E945F030C945E03262FF99961
:1006C000FECF92BD81BDF89A019700B4021639F0B1
:1006D0001FBA20BD0FB6F894FA9AF99A0FBE089582
:0406E000F894FFCFBC
:1006E40030003A0022000A005475726E3D7365743E
:0606F4002074696D650031
:00000001FF
